S01300007A61765F70726F6A656B742E7372656362
S11300000C9434000C9451000C9451000C94510045
S11300100C9451000C9451000C9451000C94510018
S11300200C9451000C9451000C9451000C94510008
S11300300C9451000C9451000C9451000C945100F8
S11300400C9451000C9451000C9451000C945100E8
S11300500C9451000C9451000C9451000C945100D8
S11300600C9451000C94510011241FBECFEFD8E022
S1130070DEBFCDBF12E0A0E0B1E0E0E6FEE002C0EA
S113008005900D92A033B107D9F722E0A0E3B2E0C6
S113009001C01D92A833B207E1F70E946D010C94D0
S11300A02E070C94000080E480937C0087E8809302
S11300B07A000895ECE7F0E08081807F8083EAE7AE
S11300C0F0E080818064808380917A0086FDFCCF9B
S11300D080913002882351F020917800309179008A
S11300E0293E334018F0109230020895811151C016
S11300F080917800909179008734910558F080912F
S11301007800909179008837910520F483E08093FA
S1130110300208958091780090917900873E91058E
S113012058F080917800909179008831914020F4C2
S113013084E0809330020895809178009091790052
S11301408336924058F080917800909179008439F8
S1130150924020F481E080933002089580917800E9
S1130160909179008D37914058F08091780090916A
S113017079008E3A914020F482E080933002089511
S11301808091780090917900449718F485E08093E9
S11301903002089580913002089585B1826085B956
S11301A085E08A95F1F7000085B18D7F85B90895C2
S11301B0CF93C62F882321F085B1816085B903C010
S11301C085B18E7F85B98BB18F709C2F907F892BE1
S11301D08BB90E94CD0085E38A95F1F700008BB1BD
S11301E090E1C99FB00111248F70682B6BB90E94F4
S11301F0CD0087EC90E00197F1F700C00000CF91AB
S1130200089561E080E00E94D8008FE19EE40197A8
S1130210F1F700C00000089562E080E00E94D80079
S11302208FED9EE20197F1F700C00000089583E08E
S113023084B980EF8AB968E280E00E94D8006CE05B
S113024080E00E94D8000E9401010E940C010895E0
S1130250882329F06EE080E00E94D80008956CE0C5
S113026080E00E94D8000895CF93C82F0E940C010B
S113027005C064E180E00E94D800C150C130C9F7D4
S1130280CF910895803B29F46FED81E00E94D8005E
S11302900895682F81E00E94D8000895CF93C82F55
S11302A08A3019F48DE00E944E018091C00085FFD0
S11302B0FCCFC093C60080E090E0CF910895CF9327
S11302C0C82F8A3019F48DE00E945F018C2F0E94A0
S11302D0420180E090E0CF9108950E9453000E9473
S11302E017010E94FB030E9413042FEF83EC99E093
S11302F0215080409040E1F700C000000E945A0065
S113030080913602882321F00E9401011092360266
S1130310809137028130F1F038F0823009F476C0F0
S1130320833009F49BC1E1CF0E940C012DE131E03F
S113033040E150E061E070E08DE291E00E946E04E3
S11303400E94CA00882389F281E080933702809357
S11303503602CBCF0E940C0180910D011F928F9326
S11303608EE391E09F938F938DE191E09F938F9320
S11303700E9420040E94CA000F900F900F900F90CB
S11303800F900F90853051F480910D0190910E01E2
S1130390891720F48F5F80930D01A7CF0E94CA00B4
S11303A0823041F480910D01823020F0815080939D
S11303B00D019BCF0E94CA00813029F410923702AC
S11303C08093360292CF0E94CA00843009F08DCF08
S11303D082E08093370281E00E94280181E08093CB
S11303E0360280910D011F928F9386E491E09F93D2
S11303F08F938FE091E09F938F930E9420040F903E
S11304000F900F900F900F900F906FCF0E940C01E0
S113041080910D011F928F938EE391E09F938F93B0
S1130420CDE1D1E0DF93CF930E94200489E20E94C2
S11304303401E2E3F2E033812281918180811F92D1
S11304403F931F922F931F929F931F928F9381E646
S113045091E09F938F93DF93CF930E9420049E019A
S113046043E050E061E070E086EE91E00E946E04AB
S1130470C09131028DB79EB742960FB6F8949EBFD5
S11304800FBE8DBF07C06DE171E088E590E00E946A
S11304903204C150C111F7CF80910C01825D0E94DA
S11304A034010E94CA00823009F088C040C0FC01B7
S11304B0EE5CFD4F3081E0910D01F0E03197EE0FDD
S11304C0FF1FEE0FFF1FE80FF91FE050FF4F2081C1
S11304D0321759F1809131028F5F809331021F925C
S11304E08F9380E791E09F938F938FE091E09F93A8
S11304F08F930E942004809131020F900F900F90EF
S11305000F900F900F908330D1F461E082E00E944D
S1130510DD032FE031E041E150E061E070E08FE87D
S113052091E00E946E0480E00BC0019602C080E05E
S113053090E0843091050CF4BACF81E001C080E0F2
S1130540882309F4D2CE82E00E940D04882371F03E
S113055060E082E00E94DD032FE031E043E150E0FF
S113056061E070E081EA91E00E946E0483E0809390
S11305703702C1E0C093360280910D011F928F9320
S113058085EB91E09F938F938FE091E09F938F93FE
S11305900E94200410923102E2E3F2E01082118200
S11305A012821382C0930C0180E00E9428010F90F4
S11305B00F900F900F900F900F9097CE0E94CA004B
S11305C0833081F480910C0190E00197FC01EE5C92
S11305D0FD4F2081293030F4FC01EE5CFD4F2F5F8C
S11305E0208383CE0E94CA00843081F480910C0160
S11305F090E00197FC01EE5CFD4F2081222331F055
S1130600FC01EE5CFD4F215020836FCE0E94CA0096
S1130610853061F480910C01843021F481E0809371
S11306200C0163CE8F5F80930C015FCE0E94CA00E1
S1130630813009F05ACE1092370280E00E942801DE
S113064081E0809336022FE031E041E150E061E047
S113065070E08CEC91E00E946E0447CE0E940C0185
S11306602DE131E04BE050E061E070E08EED91E08F
S11306700E946E0481E00E940D04882359F02DE14C
S113068031E043E050E061E070E08AEE91E00E94E6
S11306906E040AC02DE131E043E050E061E070E017
S11306A08EEE91E00E946E0489E20E9434012DE1F5
S11306B031E04BE050E061E070E082EF91E00E94B5
S11306C06E0482E00E940D04882359F02DE131E08C
S11306D043E050E061E070E08AEE91E00E946E0435
S11306E00AC02DE131E043E050E061E070E08EEEBD
S11306F091E00E946E040E94CA00833019F581E0E3
S11307000E940D0461E0682781E00E94DD0381E01E
S11307100E940D04882359F02FE031E040E150E0BD
S113072061E070E08EEF91E00E946E04DECD2FE078
S113073031E042E150E061E070E08FE092E00E943D
S11307406E04D3CD0E94CA00843019F582E00E9461
S11307500D0461E0682782E00E94DD0382E00E94CC
S11307600D04882359F02FE031E041E150E061E0CD
S113077070E08FE891E00E946E04B7CD2FE031E085
S113078043E150E061E070E081EA91E00E946E0490
S1130790ACCD0E94CA00813009F0A7CD1092370277
S11307A0809336022FE031E04CE050E061E070E0ED
S11307B082E292E00E946E0498CD813019F082307A
S11307C059F013C0611104C098B1926098B90DC07A
S11307D098B19D7F98B909C0611104C098B1946023
S11307E098B903C098B19B7F98B9E82FF0E0E65D13
S11307F0FE4F60830895CF93DF9387B1866087B9F6
S1130800CBE2D1E0688181E00E94DD03698182E06E
S11308100E94DD03DF91CF910895E82FF0E0E65DBB
S1130820FE4F8081089586E08093C20088E1809322
S1130830C10089E190E09093C5008093C4000895BD
S1130840A0E0B0E0E6E2F4E00C940707AE01475FF5
S11308505F4F6F8178858D819E810E94A204E2E0C2
S11308600C9423070F931F93CF93DF93FB012381F2
S113087021FD03C08FEF9FEF2CC022FF16C04681DD
S11308805781248135814217530744F4A081B181F3
S11308909D012F5F3F4F318320838C9326813781C5
S11308A02F5F3F4F3783268314C08B01EC01FB017C
S11308B00084F185E02D0995892BE1F6D80116967F
S11308C08D919C911797019617969C938E931697EA
S11308D0CE01DF91CF911F910F910895A0E0B0E078
S11308E0E4E7F4E00C94FD065B014A017901D901C7
S11308F013962C9121FF1DC0C0E0D0E0C815D90586
S1130900D9F08C016C01CA0CDB1CC8010C151D0547
S113091071F00F5F1F4FD7011896ED91FC91199755
S1130920B701DC018C910995892B79F305C02196D7
S1130930E5CF80E090E001C0CE01CDB7DEB7ECE0BA
S11309400C941907ABE0B0E0E8EAF4E00C94F70685
S11309506C017B018A01FC0117821682838181FF6D
S1130960CCC1CE0101963C01F6019381F70193FDC0
S1130970859193FF81917F01882309F4BAC185325F
S113098039F493FD859193FF81917F01853229F498
S1130990B60190E00E943204E7CF912C212C312C37
S11309A0FFE1F315D8F08B3279F038F4803279F026
S11309B08332A1F4232D20611DC08D3261F0803378
S11309C069F4232D216016C0832D8260382EE32D17
S11309D0E4603E2E2AC0F32DF8601DC037FC2DC004
S11309E020ED280F2A3040F08E32B9F436FC81C154
S11309F0232D2064322E19C036FE06C08AE0989E4C
S1130A00200D1124922E11C0EAE02E9E200D1124F7
S1130A10222EF32DF0623F2E08C08C3621F4832D54
S1130A208068382E02C0883641F4F70193FD859121
S1130A3093FF81917F018111B3CF982F9F7D9554AE
S1130A40933028F40C5F1F4F9FE399830DC08336C6
S1130A5031F0833771F0833509F059C021C0F801B2
S1130A60808189830E5F1F4F88248394912C5301C6
S1130A7013C02801F2E04F0E511CF801A080B18090
S1130A8036FE03C0692D70E002C06FEF7FEFC50131
S1130A900E948E064C018201F32DFF773F2E16C073
S1130AA0280122E0420E511CF801A080B18036FEDC
S1130AB003C0692D70E002C06FEF7FEFC5010E9493
S1130AC083064C01F32DF0683F2E820133FC1BC0DA
S1130AD0822D90E088169906B0F4B60180E290E089
S1130AE00E9432042A94F4CFF50137FC859137FE35
S1130AF081915F01B60190E00E94320421102A9492
S1130B0021E0821A91088114910471F7E8C08436B7
S1130B1011F0893641F5F80137FE07C06081718113
S1130B20828193810C5F1F4F08C060817181072E01
S1130B30000C880B990B0E5F1F4FF32DFF763F2E91
S1130B4097FF09C090958095709561957F4F8F4F61
S1130B509F4FF0683F2E2AE030E0A3010E949906DF
S1130B60882E861845C0853731F4232D2F7EB22E6A
S1130B702AE030E025C0932D997FB92E8F36C1F03D
S1130B8018F4883579F0B5C0803719F0883721F02A
S1130B90B0C0E92FE061BE2EB4FE0DC0FB2DF460A1
S1130BA0BF2E09C034FE0AC0292F2660B22E06C00B
S1130BB028E030E005C020E130E002C020E132E06E
S1130BC0F801B7FE07C060817181828193810C5F57
S1130BD01F4F06C06081718180E090E00E5F1F4F5F
S1130BE0A3010E949906882E8618FB2DFF773F2EBD
S1130BF036FE0DC0232D2E7FA22E891458F434FE08
S1130C000BC032FC09C0832D8E7EA82E05C0B82CE3
S1130C10A32C03C0B82C01C0B92CA4FE0FC0FE0144
S1130C20E80DF11D8081803321F49A2D997EA92E3F
S1130C3009C0A2FE06C0B394B39404C08A2D86787A
S1130C4009F0B394A3FC11C0A0FE06C0B21488F44A
S1130C50280C922C9B180EC0B21460F4B60180E2EA
S1130C6090E00E943204B394F7CFB21418F42B1816
S1130C7002C0982C212CA4FE10C0B60180E390E0A1
S1130C800E943204A2FE17C0A1FC03C088E790E0D2
S1130C9002C088E590E0B6010CC08A2D867859F030
S1130CA0A1FE02C08BE201C080E2A7FC8DE2B60186
S1130CB090E00E943204891438F4B60180E390E095
S1130CC00E9432049A94F7CF8A94F301E80DF11D3F
S1130CD08081B60190E00E9432048110F5CF222079
S1130CE009F442CEB60180E290E00E9432042A94D4
S1130CF0F6CFF6018681978102C08FEF9FEF2B9686
S1130D00E2E10C941307FC0105906150704001105E
S1130D10D8F7809590958E0F9F1F0895FC01615020
S1130D20704001900110D8F7809590958E0F9F1F09
S1130D300895FA01AA27283051F1203181F1E8946D
S1130D406F936E7F6E5F7F4F8F4F9F4FAF4FB1E0BA
S1130D503ED0B4E03CD0670F781F891F9A1FA11DB5
S1130D60680F791F8A1F911DA11D6A0F711D811DB6
S1130D70911DA11D20D009F468943F912AE0269F7B
S1130D8011243019305D3193DEF6CF010895462FDA
S1130D904770405D4193B3E00FD0C9F7F6CF462FBB
S1130DA04F70405D4A3318F0495D31FD4052419324
S1130DB002D0A9F7EACFB4E0A695979587957795E1
S1130DC06795BA95C9F700976105710508959B0168
S1130DD0AC010A2E06945795479537952795BA95F1
S1130DE0C9F7620F731F841F951FA01D08952F92CA
S1130DF03F924F925F926F927F928F929F92AF92A7
S1130E00BF92CF92DF92EF92FF920F931F93CF93F3
S1130E10DF93CDB7DEB7CA1BDB0B0FB6F894DEBF8A
S1130E200FBECDBF09942A88398848885F846E84B0
S1130E307D848C849B84AA84B984C884DF80EE80FA
S1130E40FD800C811B81AA81B981CE0FD11D0FB603
S1130E50F894DEBF0FBECDBFED010895F894FFCF27
S1130E600000000000010203090807060101030055
S1130E70000002000000004E01000000000000001D
S1130E8002000000005F01000000000100507265D4
S1130E90737320616E7920627574746F6E0055737C
S1130EA06572202564005573657220256420747270
S1130EB079696E6720746F206C6F6720696E2E0AE3
S1130EC000507377643A2025642564256425640002
S1130ED0496E636F72726563742070617373776FA8
S1130EE0726420656E747279282564292E0A004183
S1130EF06C61726D206163746976617465642E0A35
S1130F0000416C61726D206465616374697661741B
S1130F1065642E0A004C6F6767656420696E206102
S1130F207320557365722025642E0A004C6F67691F
S1130F306E2063616E63656C6C65642E0A004C6F91
S1130F40636B3A202020202020004F4E20004F4683
S1130F504600416C61726D3A2020202020004C6FC5
S1130F60636B206163746976617465642E0A004C56
S1130F706F636B2064656163746976617465642E64
S1130F800A004C6F67676564206F75742E0A000051
S9030000FC
